{
	"fundCoverter.sol": {
		"fundCoverter": {
			"abi": [
				{
					"inputs": [
						{
							"internalType": "contract AggregatorV3Interface",
							"name": "dataFeed",
							"type": "AggregatorV3Interface"
						}
					],
					"name": "getChainlinkDataFeedLatestAnswer",
					"outputs": [
						{
							"internalType": "uint256",
							"name": "",
							"type": "uint256"
						}
					],
					"stateMutability": "view",
					"type": "function"
				},
				{
					"inputs": [
						{
							"internalType": "uint256",
							"name": "ethAmount",
							"type": "uint256"
						},
						{
							"internalType": "contract AggregatorV3Interface",
							"name": "dataFeed",
							"type": "AggregatorV3Interface"
						}
					],
					"name": "getConversion",
					"outputs": [
						{
							"internalType": "uint256",
							"name": "",
							"type": "uint256"
						}
					],
					"stateMutability": "view",
					"type": "function"
				}
			],
			"devdoc": {
				"kind": "dev",
				"methods": {},
				"version": 1
			},
			"evm": {
				"assembly": "    /* \"fundCoverter.sol\":177:1456  library fundCoverter{... */\n  dataSize(sub_0)\n  dataOffset(sub_0)\n  0x0b\n  dup3\n  dup3\n  dup3\n  codecopy\n  dup1\n  mload\n  0x00\n  byte\n  0x73\n  eq\n  tag_1\n  jumpi\n  mstore(0x00, 0x4e487b7100000000000000000000000000000000000000000000000000000000)\n  mstore(0x04, 0x00)\n  revert(0x00, 0x24)\ntag_1:\n  mstore(0x00, address)\n  0x73\n  dup2\n  mstore8\n  dup3\n  dup2\n  return\nstop\n\nsub_0: assembly {\n        /* \"fundCoverter.sol\":177:1456  library fundCoverter{... */\n      eq(address, deployTimeAddress())\n      mstore(0x40, 0x80)\n      jumpi(tag_1, lt(calldatasize, 0x04))\n      shr(0xe0, calldataload(0x00))\n      dup1\n      0x62591954\n      eq\n      tag_2\n      jumpi\n      dup1\n      0xeed23184\n      eq\n      tag_3\n      jumpi\n    tag_1:\n      0x00\n      dup1\n      revert\n        /* \"fundCoverter.sol\":429:1076  function getChainlinkDataFeedLatestAnswer(AggregatorV3Interface dataFeed) public view returns (uint256) {... */\n    tag_2:\n      tag_4\n      0x04\n      dup1\n      calldatasize\n      sub\n      dup2\n      add\n      swap1\n      tag_5\n      swap2\n      swap1\n      tag_6\n      jump\t// in\n    tag_5:\n      tag_7\n      jump\t// in\n    tag_4:\n      mload(0x40)\n      tag_8\n      swap2\n      swap1\n      tag_9\n      jump\t// in\n    tag_8:\n      mload(0x40)\n      dup1\n      swap2\n      sub\n      swap1\n      return\n        /* \"fundCoverter.sol\":1084:1453  function getConversion(uint256 ethAmount,AggregatorV3Interface dataFeed) public view returns(uint256){... */\n    tag_3:\n      tag_10\n      0x04\n      dup1\n      calldatasize\n      sub\n      dup2\n      add\n      swap1\n      tag_11\n      swap2\n      swap1\n      tag_12\n      jump\t// in\n    tag_11:\n      tag_13\n      jump\t// in\n    tag_10:\n      mload(0x40)\n      tag_14\n      swap2\n      swap1\n      tag_9\n      jump\t// in\n    tag_14:\n      mload(0x40)\n      dup1\n      swap2\n      sub\n      swap1\n      return\n        /* \"fundCoverter.sol\":429:1076  function getChainlinkDataFeedLatestAnswer(AggregatorV3Interface dataFeed) public view returns (uint256) {... */\n    tag_7:\n        /* \"fundCoverter.sol\":524:531  uint256 */\n      0x00\n        /* \"fundCoverter.sol\":594:607  int256 answer */\n      dup1\n        /* \"fundCoverter.sol\":734:742  dataFeed */\n      dup3\n        /* \"fundCoverter.sol\":734:758  dataFeed.latestRoundData */\n      0xffffffffffffffffffffffffffffffffffffffff\n      and\n      0xfeaf968c\n        /* \"fundCoverter.sol\":734:760  dataFeed.latestRoundData() */\n      mload(0x40)\n      dup2\n      0xffffffff\n      and\n      0xe0\n      shl\n      dup2\n      mstore\n      0x04\n      add\n      0xa0\n      mload(0x40)\n      dup1\n      dup4\n      sub\n      dup2\n      dup7\n      gas\n      staticcall\n      iszero\n      dup1\n      iszero\n      tag_17\n      jumpi\n      returndatasize\n      0x00\n      dup1\n      returndatacopy\n      revert(0x00, returndatasize)\n    tag_17:\n      pop\n      pop\n      pop\n      pop\n      mload(0x40)\n      returndatasize\n      not(0x1f)\n      0x1f\n      dup3\n      add\n      and\n      dup3\n      add\n      dup1\n      0x40\n      mstore\n      pop\n      dup2\n      add\n      swap1\n      tag_18\n      swap2\n      swap1\n      tag_19\n      jump\t// in\n    tag_18:\n        /* \"fundCoverter.sol\":544:760  (... */\n      pop\n      pop\n      pop\n      swap2\n      pop\n      pop\n        /* \"fundCoverter.sol\":1063:1067  1e10 */\n      0x02540be400\n        /* \"fundCoverter.sol\":1056:1062  answer */\n      dup2\n        /* \"fundCoverter.sol\":1056:1067  answer*1e10 */\n      tag_20\n      swap2\n      swap1\n      tag_21\n      jump\t// in\n    tag_20:\n        /* \"fundCoverter.sol\":1041:1068  return uint256(answer*1e10) */\n      swap2\n      pop\n      pop\n        /* \"fundCoverter.sol\":429:1076  function getChainlinkDataFeedLatestAnswer(AggregatorV3Interface dataFeed) public view returns (uint256) {... */\n      swap2\n      swap1\n      pop\n      jump\t// out\n        /* \"fundCoverter.sol\":1084:1453  function getConversion(uint256 ethAmount,AggregatorV3Interface dataFeed) public view returns(uint256){... */\n    tag_13:\n        /* \"fundCoverter.sol\":1177:1184  uint256 */\n      0x00\n        /* \"fundCoverter.sol\":1196:1211  uint256 ethRate */\n      dup1\n        /* \"fundCoverter.sol\":1212:1254  getChainlinkDataFeedLatestAnswer(dataFeed) */\n      tag_23\n        /* \"fundCoverter.sol\":1245:1253  dataFeed */\n      dup4\n        /* \"fundCoverter.sol\":1212:1244  getChainlinkDataFeedLatestAnswer */\n      tag_7\n        /* \"fundCoverter.sol\":1212:1254  getChainlinkDataFeedLatestAnswer(dataFeed) */\n      jump\t// in\n    tag_23:\n        /* \"fundCoverter.sol\":1196:1254  uint256 ethRate=getChainlinkDataFeedLatestAnswer(dataFeed) */\n      swap1\n      pop\n        /* \"fundCoverter.sol\":1441:1445  1e18 */\n      0x0de0b6b3a7640000\n        /* \"fundCoverter.sol\":1432:1439  ethRate */\n      dup2\n        /* \"fundCoverter.sol\":1422:1431  ethAmount */\n      dup6\n        /* \"fundCoverter.sol\":1422:1439  ethAmount*ethRate */\n      tag_24\n      swap2\n      swap1\n      tag_25\n      jump\t// in\n    tag_24:\n        /* \"fundCoverter.sol\":1421:1445  (ethAmount*ethRate)/1e18 */\n      tag_26\n      swap2\n      swap1\n      tag_27\n      jump\t// in\n    tag_26:\n        /* \"fundCoverter.sol\":1414:1445  return (ethAmount*ethRate)/1e18 */\n      swap2\n      pop\n      pop\n        /* \"fundCoverter.sol\":1084:1453  function getConversion(uint256 ethAmount,AggregatorV3Interface dataFeed) public view returns(uint256){... */\n      swap3\n      swap2\n      pop\n      pop\n      jump\t// out\n        /* \"#utility.yul\":88:205   */\n    tag_29:\n        /* \"#utility.yul\":197:198   */\n      0x00\n        /* \"#utility.yul\":194:195   */\n      dup1\n        /* \"#utility.yul\":187:199   */\n      revert\n        /* \"#utility.yul\":334:460   */\n    tag_31:\n        /* \"#utility.yul\":371:378   */\n      0x00\n        /* \"#utility.yul\":411:453   */\n      0xffffffffffffffffffffffffffffffffffffffff\n        /* \"#utility.yul\":404:409   */\n      dup3\n        /* \"#utility.yul\":400:454   */\n      and\n        /* \"#utility.yul\":389:454   */\n      swap1\n      pop\n        /* \"#utility.yul\":334:460   */\n      swap2\n      swap1\n      pop\n      jump\t// out\n        /* \"#utility.yul\":466:562   */\n    tag_32:\n        /* \"#utility.yul\":503:510   */\n      0x00\n        /* \"#utility.yul\":532:556   */\n      tag_55\n        /* \"#utility.yul\":550:555   */\n      dup3\n        /* \"#utility.yul\":532:556   */\n      tag_31\n      jump\t// in\n    tag_55:\n        /* \"#utility.yul\":521:556   */\n      swap1\n      pop\n        /* \"#utility.yul\":466:562   */\n      swap2\n      swap1\n      pop\n      jump\t// out\n        /* \"#utility.yul\":568:692   */\n    tag_33:\n        /* \"#utility.yul\":633:640   */\n      0x00\n        /* \"#utility.yul\":662:686   */\n      tag_57\n        /* \"#utility.yul\":680:685   */\n      dup3\n        /* \"#utility.yul\":662:686   */\n      tag_32\n      jump\t// in\n    tag_57:\n        /* \"#utility.yul\":651:686   */\n      swap1\n      pop\n        /* \"#utility.yul\":568:692   */\n      swap2\n      swap1\n      pop\n      jump\t// out\n        /* \"#utility.yul\":698:876   */\n    tag_34:\n        /* \"#utility.yul\":799:851   */\n      tag_59\n        /* \"#utility.yul\":845:850   */\n      dup2\n        /* \"#utility.yul\":799:851   */\n      tag_33\n      jump\t// in\n    tag_59:\n        /* \"#utility.yul\":792:797   */\n      dup2\n        /* \"#utility.yul\":789:852   */\n      eq\n        /* \"#utility.yul\":779:870   */\n      tag_60\n      jumpi\n        /* \"#utility.yul\":866:867   */\n      0x00\n        /* \"#utility.yul\":863:864   */\n      dup1\n        /* \"#utility.yul\":856:868   */\n      revert\n        /* \"#utility.yul\":779:870   */\n    tag_60:\n        /* \"#utility.yul\":698:876   */\n      pop\n      jump\t// out\n        /* \"#utility.yul\":882:1077   */\n    tag_35:\n        /* \"#utility.yul\":956:961   */\n      0x00\n        /* \"#utility.yul\":994:1000   */\n      dup2\n        /* \"#utility.yul\":981:1001   */\n      calldataload\n        /* \"#utility.yul\":972:1001   */\n      swap1\n      pop\n        /* \"#utility.yul\":1010:1071   */\n      tag_62\n        /* \"#utility.yul\":1065:1070   */\n      dup2\n        /* \"#utility.yul\":1010:1071   */\n      tag_34\n      jump\t// in\n    tag_62:\n        /* \"#utility.yul\":882:1077   */\n      swap3\n      swap2\n      pop\n      pop\n      jump\t// out\n        /* \"#utility.yul\":1083:1468   */\n    tag_6:\n        /* \"#utility.yul\":1170:1176   */\n      0x00\n        /* \"#utility.yul\":1219:1221   */\n      0x20\n        /* \"#utility.yul\":1207:1216   */\n      dup3\n        /* \"#utility.yul\":1198:1205   */\n      dup5\n        /* \"#utility.yul\":1194:1217   */\n      sub\n        /* \"#utility.yul\":1190:1222   */\n      slt\n        /* \"#utility.yul\":1187:1306   */\n      iszero\n      tag_64\n      jumpi\n        /* \"#utility.yul\":1225:1304   */\n      tag_65\n      tag_29\n      jump\t// in\n    tag_65:\n        /* \"#utility.yul\":1187:1306   */\n    tag_64:\n        /* \"#utility.yul\":1345:1346   */\n      0x00\n        /* \"#utility.yul\":1370:1451   */\n      tag_66\n        /* \"#utility.yul\":1443:1450   */\n      dup5\n        /* \"#utility.yul\":1434:1440   */\n      dup3\n        /* \"#utility.yul\":1423:1432   */\n      dup6\n        /* \"#utility.yul\":1419:1441   */\n      add\n        /* \"#utility.yul\":1370:1451   */\n      tag_35\n      jump\t// in\n    tag_66:\n        /* \"#utility.yul\":1360:1451   */\n      swap2\n      pop\n        /* \"#utility.yul\":1316:1461   */\n      pop\n        /* \"#utility.yul\":1083:1468   */\n      swap3\n      swap2\n      pop\n      pop\n      jump\t// out\n        /* \"#utility.yul\":1474:1551   */\n    tag_36:\n        /* \"#utility.yul\":1511:1518   */\n      0x00\n        /* \"#utility.yul\":1540:1545   */\n      dup2\n        /* \"#utility.yul\":1529:1545   */\n      swap1\n      pop\n        /* \"#utility.yul\":1474:1551   */\n      swap2\n      swap1\n      pop\n      jump\t// out\n        /* \"#utility.yul\":1557:1683   */\n    tag_37:\n        /* \"#utility.yul\":1652:1676   */\n      tag_69\n        /* \"#utility.yul\":1670:1675   */\n      dup2\n        /* \"#utility.yul\":1652:1676   */\n      tag_36\n      jump\t// in\n    tag_69:\n        /* \"#utility.yul\":1647:1650   */\n      dup3\n        /* \"#utility.yul\":1640:1677   */\n      mstore\n        /* \"#utility.yul\":1557:1683   */\n      pop\n      pop\n      jump\t// out\n        /* \"#utility.yul\":1689:1927   */\n    tag_9:\n        /* \"#utility.yul\":1790:1794   */\n      0x00\n        /* \"#utility.yul\":1828:1830   */\n      0x20\n        /* \"#utility.yul\":1817:1826   */\n      dup3\n        /* \"#utility.yul\":1813:1831   */\n      add\n        /* \"#utility.yul\":1805:1831   */\n      swap1\n      pop\n        /* \"#utility.yul\":1841:1920   */\n      tag_71\n        /* \"#utility.yul\":1917:1918   */\n      0x00\n        /* \"#utility.yul\":1906:1915   */\n      dup4\n        /* \"#utility.yul\":1902:1919   */\n      add\n        /* \"#utility.yul\":1893:1899   */\n      dup5\n        /* \"#utility.yul\":1841:1920   */\n      tag_37\n      jump\t// in\n    tag_71:\n        /* \"#utility.yul\":1689:1927   */\n      swap3\n      swap2\n      pop\n      pop\n      jump\t// out\n        /* \"#utility.yul\":1933:2055   */\n    tag_38:\n        /* \"#utility.yul\":2006:2030   */\n      tag_73\n        /* \"#utility.yul\":2024:2029   */\n      dup2\n        /* \"#utility.yul\":2006:2030   */\n      tag_36\n      jump\t// in\n    tag_73:\n        /* \"#utility.yul\":1999:2004   */\n      dup2\n        /* \"#utility.yul\":1996:2031   */\n      eq\n        /* \"#utility.yul\":1986:2049   */\n      tag_74\n      jumpi\n        /* \"#utility.yul\":2045:2046   */\n      0x00\n        /* \"#utility.yul\":2042:2043   */\n      dup1\n        /* \"#utility.yul\":2035:2047   */\n      revert\n        /* \"#utility.yul\":1986:2049   */\n    tag_74:\n        /* \"#utility.yul\":1933:2055   */\n      pop\n      jump\t// out\n        /* \"#utility.yul\":2061:2200   */\n    tag_39:\n        /* \"#utility.yul\":2107:2112   */\n      0x00\n        /* \"#utility.yul\":2145:2151   */\n      dup2\n        /* \"#utility.yul\":2132:2152   */\n      calldataload\n        /* \"#utility.yul\":2123:2152   */\n      swap1\n      pop\n        /* \"#utility.yul\":2161:2194   */\n      tag_76\n        /* \"#utility.yul\":2188:2193   */\n      dup2\n        /* \"#utility.yul\":2161:2194   */\n      tag_38\n      jump\t// in\n    tag_76:\n        /* \"#utility.yul\":2061:2200   */\n      swap3\n      swap2\n      pop\n      pop\n      jump\t// out\n        /* \"#utility.yul\":2206:2736   */\n    tag_12:\n        /* \"#utility.yul\":2302:2308   */\n      0x00\n        /* \"#utility.yul\":2310:2316   */\n      dup1\n        /* \"#utility.yul\":2359:2361   */\n      0x40\n        /* \"#utility.yul\":2347:2356   */\n      dup4\n        /* \"#utility.yul\":2338:2345   */\n      dup6\n        /* \"#utility.yul\":2334:2357   */\n      sub\n        /* \"#utility.yul\":2330:2362   */\n      slt\n        /* \"#utility.yul\":2327:2446   */\n      iszero\n      tag_78\n      jumpi\n        /* \"#utility.yul\":2365:2444   */\n      tag_79\n      tag_29\n      jump\t// in\n    tag_79:\n        /* \"#utility.yul\":2327:2446   */\n    tag_78:\n        /* \"#utility.yul\":2485:2486   */\n      0x00\n        /* \"#utility.yul\":2510:2563   */\n      tag_80\n        /* \"#utility.yul\":2555:2562   */\n      dup6\n        /* \"#utility.yul\":2546:2552   */\n      dup3\n        /* \"#utility.yul\":2535:2544   */\n      dup7\n        /* \"#utility.yul\":2531:2553   */\n      add\n        /* \"#utility.yul\":2510:2563   */\n      tag_39\n      jump\t// in\n    tag_80:\n        /* \"#utility.yul\":2500:2563   */\n      swap3\n      pop\n        /* \"#utility.yul\":2456:2573   */\n      pop\n        /* \"#utility.yul\":2612:2614   */\n      0x20\n        /* \"#utility.yul\":2638:2719   */\n      tag_81\n        /* \"#utility.yul\":2711:2718   */\n      dup6\n        /* \"#utility.yul\":2702:2708   */\n      dup3\n        /* \"#utility.yul\":2691:2700   */\n      dup7\n        /* \"#utility.yul\":2687:2709   */\n      add\n        /* \"#utility.yul\":2638:2719   */\n      tag_35\n      jump\t// in\n    tag_81:\n        /* \"#utility.yul\":2628:2719   */\n      swap2\n      pop\n        /* \"#utility.yul\":2583:2729   */\n      pop\n        /* \"#utility.yul\":2206:2736   */\n      swap3\n      pop\n      swap3\n      swap1\n      pop\n      jump\t// out\n        /* \"#utility.yul\":2742:2847   */\n    tag_40:\n        /* \"#utility.yul\":2778:2785   */\n      0x00\n        /* \"#utility.yul\":2818:2840   */\n      0xffffffffffffffffffff\n        /* \"#utility.yul\":2811:2816   */\n      dup3\n        /* \"#utility.yul\":2807:2841   */\n      and\n        /* \"#utility.yul\":2796:2841   */\n      swap1\n      pop\n        /* \"#utility.yul\":2742:2847   */\n      swap2\n      swap1\n      pop\n      jump\t// out\n        /* \"#utility.yul\":2853:2973   */\n    tag_41:\n        /* \"#utility.yul\":2925:2948   */\n      tag_84\n        /* \"#utility.yul\":2942:2947   */\n      dup2\n        /* \"#utility.yul\":2925:2948   */\n      tag_40\n      jump\t// in\n    tag_84:\n        /* \"#utility.yul\":2918:2923   */\n      dup2\n        /* \"#utility.yul\":2915:2949   */\n      eq\n        /* \"#utility.yul\":2905:2967   */\n      tag_85\n      jumpi\n        /* \"#utility.yul\":2963:2964   */\n      0x00\n        /* \"#utility.yul\":2960:2961   */\n      dup1\n        /* \"#utility.yul\":2953:2965   */\n      revert\n        /* \"#utility.yul\":2905:2967   */\n    tag_85:\n        /* \"#utility.yul\":2853:2973   */\n      pop\n      jump\t// out\n        /* \"#utility.yul\":2979:3120   */\n    tag_42:\n        /* \"#utility.yul\":3035:3040   */\n      0x00\n        /* \"#utility.yul\":3066:3072   */\n      dup2\n        /* \"#utility.yul\":3060:3073   */\n      mload\n        /* \"#utility.yul\":3051:3073   */\n      swap1\n      pop\n        /* \"#utility.yul\":3082:3114   */\n      tag_87\n        /* \"#utility.yul\":3108:3113   */\n      dup2\n        /* \"#utility.yul\":3082:3114   */\n      tag_41\n      jump\t// in\n    tag_87:\n        /* \"#utility.yul\":2979:3120   */\n      swap3\n      swap2\n      pop\n      pop\n      jump\t// out\n        /* \"#utility.yul\":3126:3202   */\n    tag_43:\n        /* \"#utility.yul\":3162:3169   */\n      0x00\n        /* \"#utility.yul\":3191:3196   */\n      dup2\n        /* \"#utility.yul\":3180:3196   */\n      swap1\n      pop\n        /* \"#utility.yul\":3126:3202   */\n      swap2\n      swap1\n      pop\n      jump\t// out\n        /* \"#utility.yul\":3208:3328   */\n    tag_44:\n        /* \"#utility.yul\":3280:3303   */\n      tag_90\n        /* \"#utility.yul\":3297:3302   */\n      dup2\n        /* \"#utility.yul\":3280:3303   */\n      tag_43\n      jump\t// in\n    tag_90:\n        /* \"#utility.yul\":3273:3278   */\n      dup2\n        /* \"#utility.yul\":3270:3304   */\n      eq\n        /* \"#utility.yul\":3260:3322   */\n      tag_91\n      jumpi\n        /* \"#utility.yul\":3318:3319   */\n      0x00\n        /* \"#utility.yul\":3315:3316   */\n      dup1\n        /* \"#utility.yul\":3308:3320   */\n      revert\n        /* \"#utility.yul\":3260:3322   */\n    tag_91:\n        /* \"#utility.yul\":3208:3328   */\n      pop\n      jump\t// out\n        /* \"#utility.yul\":3334:3475   */\n    tag_45:\n        /* \"#utility.yul\":3390:3395   */\n      0x00\n        /* \"#utility.yul\":3421:3427   */\n      dup2\n        /* \"#utility.yul\":3415:3428   */\n      mload\n        /* \"#utility.yul\":3406:3428   */\n      swap1\n      pop\n        /* \"#utility.yul\":3437:3469   */\n      tag_93\n        /* \"#utility.yul\":3463:3468   */\n      dup2\n        /* \"#utility.yul\":3437:3469   */\n      tag_44\n      jump\t// in\n    tag_93:\n        /* \"#utility.yul\":3334:3475   */\n      swap3\n      swap2\n      pop\n      pop\n      jump\t// out\n        /* \"#utility.yul\":3481:3624   */\n    tag_46:\n        /* \"#utility.yul\":3538:3543   */\n      0x00\n        /* \"#utility.yul\":3569:3575   */\n      dup2\n        /* \"#utility.yul\":3563:3576   */\n      mload\n        /* \"#utility.yul\":3554:3576   */\n      swap1\n      pop\n        /* \"#utility.yul\":3585:3618   */\n      tag_95\n        /* \"#utility.yul\":3612:3617   */\n      dup2\n        /* \"#utility.yul\":3585:3618   */\n      tag_38\n      jump\t// in\n    tag_95:\n        /* \"#utility.yul\":3481:3624   */\n      swap3\n      swap2\n      pop\n      pop\n      jump\t// out\n        /* \"#utility.yul\":3630:4601   */\n    tag_19:\n        /* \"#utility.yul\":3733:3739   */\n      0x00\n        /* \"#utility.yul\":3741:3747   */\n      dup1\n        /* \"#utility.yul\":3749:3755   */\n      0x00\n        /* \"#utility.yul\":3757:3763   */\n      dup1\n        /* \"#utility.yul\":3765:3771   */\n      0x00\n        /* \"#utility.yul\":3814:3817   */\n      0xa0\n        /* \"#utility.yul\":3802:3811   */\n      dup7\n        /* \"#utility.yul\":3793:3800   */\n      dup9\n        /* \"#utility.yul\":3789:3812   */\n      sub\n        /* \"#utility.yul\":3785:3818   */\n      slt\n        /* \"#utility.yul\":3782:3902   */\n      iszero\n      tag_97\n      jumpi\n        /* \"#utility.yul\":3821:3900   */\n      tag_98\n      tag_29\n      jump\t// in\n    tag_98:\n        /* \"#utility.yul\":3782:3902   */\n    tag_97:\n        /* \"#utility.yul\":3941:3942   */\n      0x00\n        /* \"#utility.yul\":3966:4029   */\n      tag_99\n        /* \"#utility.yul\":4021:4028   */\n      dup9\n        /* \"#utility.yul\":4012:4018   */\n      dup3\n        /* \"#utility.yul\":4001:4010   */\n      dup10\n        /* \"#utility.yul\":3997:4019   */\n      add\n        /* \"#utility.yul\":3966:4029   */\n      tag_42\n      jump\t// in\n    tag_99:\n        /* \"#utility.yul\":3956:4029   */\n      swap6\n      pop\n        /* \"#utility.yul\":3912:4039   */\n      pop\n        /* \"#utility.yul\":4078:4080   */\n      0x20\n        /* \"#utility.yul\":4104:4167   */\n      tag_100\n        /* \"#utility.yul\":4159:4166   */\n      dup9\n        /* \"#utility.yul\":4150:4156   */\n      dup3\n        /* \"#utility.yul\":4139:4148   */\n      dup10\n        /* \"#utility.yul\":4135:4157   */\n      add\n        /* \"#utility.yul\":4104:4167   */\n      tag_45\n      jump\t// in\n    tag_100:\n        /* \"#utility.yul\":4094:4167   */\n      swap5\n      pop\n        /* \"#utility.yul\":4049:4177   */\n      pop\n        /* \"#utility.yul\":4216:4218   */\n      0x40\n        /* \"#utility.yul\":4242:4306   */\n      tag_101\n        /* \"#utility.yul\":4298:4305   */\n      dup9\n        /* \"#utility.yul\":4289:4295   */\n      dup3\n        /* \"#utility.yul\":4278:4287   */\n      dup10\n        /* \"#utility.yul\":4274:4296   */\n      add\n        /* \"#utility.yul\":4242:4306   */\n      tag_46\n      jump\t// in\n    tag_101:\n        /* \"#utility.yul\":4232:4306   */\n      swap4\n      pop\n        /* \"#utility.yul\":4187:4316   */\n      pop\n        /* \"#utility.yul\":4355:4357   */\n      0x60\n        /* \"#utility.yul\":4381:4445   */\n      tag_102\n        /* \"#utility.yul\":4437:4444   */\n      dup9\n        /* \"#utility.yul\":4428:4434   */\n      dup3\n        /* \"#utility.yul\":4417:4426   */\n      dup10\n        /* \"#utility.yul\":4413:4435   */\n      add\n        /* \"#utility.yul\":4381:4445   */\n      tag_46\n      jump\t// in\n    tag_102:\n        /* \"#utility.yul\":4371:4445   */\n      swap3\n      pop\n        /* \"#utility.yul\":4326:4455   */\n      pop\n        /* \"#utility.yul\":4494:4497   */\n      0x80\n        /* \"#utility.yul\":4521:4584   */\n      tag_103\n        /* \"#utility.yul\":4576:4583   */\n      dup9\n        /* \"#utility.yul\":4567:4573   */\n      dup3\n        /* \"#utility.yul\":4556:4565   */\n      dup10\n        /* \"#utility.yul\":4552:4574   */\n      add\n        /* \"#utility.yul\":4521:4584   */\n      tag_42\n      jump\t// in\n    tag_103:\n        /* \"#utility.yul\":4511:4584   */\n      swap2\n      pop\n        /* \"#utility.yul\":4465:4594   */\n      pop\n        /* \"#utility.yul\":3630:4601   */\n      swap3\n      swap6\n      pop\n      swap3\n      swap6\n      swap1\n      swap4\n      pop\n      jump\t// out\n        /* \"#utility.yul\":4607:4787   */\n    tag_47:\n        /* \"#utility.yul\":4655:4732   */\n      0x4e487b7100000000000000000000000000000000000000000000000000000000\n        /* \"#utility.yul\":4652:4653   */\n      0x00\n        /* \"#utility.yul\":4645:4733   */\n      mstore\n        /* \"#utility.yul\":4752:4756   */\n      0x11\n        /* \"#utility.yul\":4749:4750   */\n      0x04\n        /* \"#utility.yul\":4742:4757   */\n      mstore\n        /* \"#utility.yul\":4776:4780   */\n      0x24\n        /* \"#utility.yul\":4773:4774   */\n      0x00\n        /* \"#utility.yul\":4766:4781   */\n      revert\n        /* \"#utility.yul\":4793:5349   */\n    tag_21:\n        /* \"#utility.yul\":4832:4839   */\n      0x00\n        /* \"#utility.yul\":4855:4874   */\n      tag_106\n        /* \"#utility.yul\":4872:4873   */\n      dup3\n        /* \"#utility.yul\":4855:4874   */\n      tag_43\n      jump\t// in\n    tag_106:\n        /* \"#utility.yul\":4850:4874   */\n      swap2\n      pop\n        /* \"#utility.yul\":4888:4907   */\n      tag_107\n        /* \"#utility.yul\":4905:4906   */\n      dup4\n        /* \"#utility.yul\":4888:4907   */\n      tag_43\n      jump\t// in\n    tag_107:\n        /* \"#utility.yul\":4883:4907   */\n      swap3\n      pop\n        /* \"#utility.yul\":4942:4943   */\n      dup3\n        /* \"#utility.yul\":4939:4940   */\n      dup3\n        /* \"#utility.yul\":4935:4944   */\n      mul\n        /* \"#utility.yul\":4964:4993   */\n      tag_108\n        /* \"#utility.yul\":4981:4992   */\n      dup2\n        /* \"#utility.yul\":4964:4993   */\n      tag_43\n      jump\t// in\n    tag_108:\n        /* \"#utility.yul\":4953:4993   */\n      swap2\n      pop\n        /* \"#utility.yul\":5051:5117   */\n      0x8000000000000000000000000000000000000000000000000000000000000000\n        /* \"#utility.yul\":5048:5049   */\n      dup5\n        /* \"#utility.yul\":5045:5118   */\n      eq\n        /* \"#utility.yul\":5041:5042   */\n      0x00\n        /* \"#utility.yul\":5038:5039   */\n      dup5\n        /* \"#utility.yul\":5034:5043   */\n      slt\n        /* \"#utility.yul\":5030:5119   */\n      and\n        /* \"#utility.yul\":5027:5142   */\n      iszero\n      tag_109\n      jumpi\n        /* \"#utility.yul\":5122:5140   */\n      tag_110\n      tag_47\n      jump\t// in\n    tag_110:\n        /* \"#utility.yul\":5027:5142   */\n    tag_109:\n        /* \"#utility.yul\":5292:5293   */\n      dup3\n        /* \"#utility.yul\":5283:5290   */\n      dup3\n        /* \"#utility.yul\":5278:5294   */\n      sdiv\n        /* \"#utility.yul\":5275:5276   */\n      dup5\n        /* \"#utility.yul\":5272:5295   */\n      eq\n        /* \"#utility.yul\":5252:5253   */\n      dup4\n        /* \"#utility.yul\":5245:5254   */\n      iszero\n        /* \"#utility.yul\":5225:5309   */\n      or\n        /* \"#utility.yul\":5202:5342   */\n      tag_111\n      jumpi\n        /* \"#utility.yul\":5322:5340   */\n      tag_112\n      tag_47\n      jump\t// in\n    tag_112:\n        /* \"#utility.yul\":5202:5342   */\n    tag_111:\n        /* \"#utility.yul\":4840:5349   */\n      pop\n        /* \"#utility.yul\":4793:5349   */\n      swap3\n      swap2\n      pop\n      pop\n      jump\t// out\n        /* \"#utility.yul\":5355:5765   */\n    tag_25:\n        /* \"#utility.yul\":5395:5402   */\n      0x00\n        /* \"#utility.yul\":5418:5438   */\n      tag_114\n        /* \"#utility.yul\":5436:5437   */\n      dup3\n        /* \"#utility.yul\":5418:5438   */\n      tag_36\n      jump\t// in\n    tag_114:\n        /* \"#utility.yul\":5413:5438   */\n      swap2\n      pop\n        /* \"#utility.yul\":5452:5472   */\n      tag_115\n        /* \"#utility.yul\":5470:5471   */\n      dup4\n        /* \"#utility.yul\":5452:5472   */\n      tag_36\n      jump\t// in\n    tag_115:\n        /* \"#utility.yul\":5447:5472   */\n      swap3\n      pop\n        /* \"#utility.yul\":5507:5508   */\n      dup3\n        /* \"#utility.yul\":5504:5505   */\n      dup3\n        /* \"#utility.yul\":5500:5509   */\n      mul\n        /* \"#utility.yul\":5529:5559   */\n      tag_116\n        /* \"#utility.yul\":5547:5558   */\n      dup2\n        /* \"#utility.yul\":5529:5559   */\n      tag_36\n      jump\t// in\n    tag_116:\n        /* \"#utility.yul\":5518:5559   */\n      swap2\n      pop\n        /* \"#utility.yul\":5708:5709   */\n      dup3\n        /* \"#utility.yul\":5699:5706   */\n      dup3\n        /* \"#utility.yul\":5695:5710   */\n      div\n        /* \"#utility.yul\":5692:5693   */\n      dup5\n        /* \"#utility.yul\":5689:5711   */\n      eq\n        /* \"#utility.yul\":5669:5670   */\n      dup4\n        /* \"#utility.yul\":5662:5671   */\n      iszero\n        /* \"#utility.yul\":5642:5725   */\n      or\n        /* \"#utility.yul\":5619:5758   */\n      tag_117\n      jumpi\n        /* \"#utility.yul\":5738:5756   */\n      tag_118\n      tag_47\n      jump\t// in\n    tag_118:\n        /* \"#utility.yul\":5619:5758   */\n    tag_117:\n        /* \"#utility.yul\":5403:5765   */\n      pop\n        /* \"#utility.yul\":5355:5765   */\n      swap3\n      swap2\n      pop\n      pop\n      jump\t// out\n        /* \"#utility.yul\":5771:5951   */\n    tag_48:\n        /* \"#utility.yul\":5819:5896   */\n      0x4e487b7100000000000000000000000000000000000000000000000000000000\n        /* \"#utility.yul\":5816:5817   */\n      0x00\n        /* \"#utility.yul\":5809:5897   */\n      mstore\n        /* \"#utility.yul\":5916:5920   */\n      0x12\n        /* \"#utility.yul\":5913:5914   */\n      0x04\n        /* \"#utility.yul\":5906:5921   */\n      mstore\n        /* \"#utility.yul\":5940:5944   */\n      0x24\n        /* \"#utility.yul\":5937:5938   */\n      0x00\n        /* \"#utility.yul\":5930:5945   */\n      revert\n        /* \"#utility.yul\":5957:6142   */\n    tag_27:\n        /* \"#utility.yul\":5997:5998   */\n      0x00\n        /* \"#utility.yul\":6014:6034   */\n      tag_121\n        /* \"#utility.yul\":6032:6033   */\n      dup3\n        /* \"#utility.yul\":6014:6034   */\n      tag_36\n      jump\t// in\n    tag_121:\n        /* \"#utility.yul\":6009:6034   */\n      swap2\n      pop\n        /* \"#utility.yul\":6048:6068   */\n      tag_122\n        /* \"#utility.yul\":6066:6067   */\n      dup4\n        /* \"#utility.yul\":6048:6068   */\n      tag_36\n      jump\t// in\n    tag_122:\n        /* \"#utility.yul\":6043:6068   */\n      swap3\n      pop\n        /* \"#utility.yul\":6087:6088   */\n      dup3\n        /* \"#utility.yul\":6077:6112   */\n      tag_123\n      jumpi\n        /* \"#utility.yul\":6092:6110   */\n      tag_124\n      tag_48\n      jump\t// in\n    tag_124:\n        /* \"#utility.yul\":6077:6112   */\n    tag_123:\n        /* \"#utility.yul\":6134:6135   */\n      dup3\n        /* \"#utility.yul\":6131:6132   */\n      dup3\n        /* \"#utility.yul\":6127:6136   */\n      div\n        /* \"#utility.yul\":6122:6136   */\n      swap1\n      pop\n        /* \"#utility.yul\":5957:6142   */\n      swap3\n      swap2\n      pop\n      pop\n      jump\t// out\n\n    auxdata: 0xa26469706673582212200b60ac6e22d6dd5a85ec481304c9ee719494734bc662df48b3e6f2fb674c226464736f6c63430008130033\n}\n",
				"bytecode": {
					"linkReferences": {},
					"object": "610535610053600b82828239805160001a607314610046577f4e487b7100000000000000000000000000000000000000000000000000000000600052600060045260246000fd5b30600052607381538281f3fe73000000000000000000000000000000000000000030146080604052600436106100405760003560e01c80636259195414610045578063eed2318414610075575b600080fd5b61005f600480360381019061005a91906101e1565b6100a5565b60405161006c9190610227565b60405180910390f35b61008f600480360381019061008a919061026e565b610136565b60405161009c9190610227565b60405180910390f35b6000808273ffffffffffffffffffffffffffffffffffffffff1663feaf968c6040518163ffffffff1660e01b815260040160a060405180830381865afa1580156100f3573d6000803e3d6000fd5b505050506040513d601f19601f82011682018060405250810190610117919061033b565b5050509150506402540be4008161012e91906103e5565b915050919050565b600080610142836100a5565b9050670de0b6b3a76400008185610159919061045d565b61016391906104ce565b91505092915050565b600080fd5b600073ffffffffffffffffffffffffffffffffffffffff82169050919050565b600061019c82610171565b9050919050565b60006101ae82610191565b9050919050565b6101be816101a3565b81146101c957600080fd5b50565b6000813590506101db816101b5565b92915050565b6000602082840312156101f7576101f661016c565b5b6000610205848285016101cc565b91505092915050565b6000819050919050565b6102218161020e565b82525050565b600060208201905061023c6000830184610218565b92915050565b61024b8161020e565b811461025657600080fd5b50565b60008135905061026881610242565b92915050565b600080604083850312156102855761028461016c565b5b600061029385828601610259565b92505060206102a4858286016101cc565b9150509250929050565b600069ffffffffffffffffffff82169050919050565b6102cd816102ae565b81146102d857600080fd5b50565b6000815190506102ea816102c4565b92915050565b6000819050919050565b610303816102f0565b811461030e57600080fd5b50565b600081519050610320816102fa565b92915050565b60008151905061033581610242565b92915050565b600080600080600060a086880312156103575761035661016c565b5b6000610365888289016102db565b955050602061037688828901610311565b945050604061038788828901610326565b935050606061039888828901610326565b92505060806103a9888289016102db565b9150509295509295909350565b7f4e487b7100000000000000000000000000000000000000000000000000000000600052601160045260246000fd5b60006103f0826102f0565b91506103fb836102f0565b9250828202610409816102f0565b91507f80000000000000000000000000000000000000000000000000000000000000008414600084121615610441576104406103b6565b5b8282058414831517610456576104556103b6565b5b5092915050565b60006104688261020e565b91506104738361020e565b92508282026104818161020e565b91508282048414831517610498576104976103b6565b5b5092915050565b7f4e487b7100000000000000000000000000000000000000000000000000000000600052601260045260246000fd5b60006104d98261020e565b91506104e48361020e565b9250826104f4576104f361049f565b5b82820490509291505056fea26469706673582212200b60ac6e22d6dd5a85ec481304c9ee719494734bc662df48b3e6f2fb674c226464736f6c63430008130033",
					"opcodes": "PUSH2 0x535 PUSH2 0x53 PUSH1 0xB DUP3 DUP3 DUP3 CODECOPY DUP1 MLOAD PUSH1 0x0 BYTE PUSH1 0x73 EQ PUSH2 0x46 JUMPI PUSH32 0x4E487B7100000000000000000000000000000000000000000000000000000000 PUSH1 0x0 MSTORE PUSH1 0x0 PUSH1 0x4 MSTORE PUSH1 0x24 PUSH1 0x0 REVERT JUMPDEST ADDRESS PUSH1 0x0 MSTORE PUSH1 0x73 DUP2 MSTORE8 DUP3 DUP2 RETURN INVALID PUSH20 0x0 ADDRESS EQ PUSH1 0x80 PUSH1 0x40 MSTORE PUSH1 0x4 CALLDATASIZE LT PUSH2 0x40 JUMPI PUSH1 0x0 CALLDATALOAD PUSH1 0xE0 SHR DUP1 PUSH4 0x62591954 EQ PUSH2 0x45 JUMPI DUP1 PUSH4 0xEED23184 EQ PUSH2 0x75 JUMPI JUMPDEST PUSH1 0x0 DUP1 REVERT JUMPDEST PUSH2 0x5F PUSH1 0x4 DUP1 CALLDATASIZE SUB DUP2 ADD SWAP1 PUSH2 0x5A SWAP2 SWAP1 PUSH2 0x1E1 JUMP JUMPDEST PUSH2 0xA5 JUMP JUMPDEST PUSH1 0x40 MLOAD PUSH2 0x6C SWAP2 SWAP1 PUSH2 0x227 JUMP JUMPDEST PUSH1 0x40 MLOAD DUP1 SWAP2 SUB SWAP1 RETURN JUMPDEST PUSH2 0x8F PUSH1 0x4 DUP1 CALLDATASIZE SUB DUP2 ADD SWAP1 PUSH2 0x8A SWAP2 SWAP1 PUSH2 0x26E JUMP JUMPDEST PUSH2 0x136 JUMP JUMPDEST PUSH1 0x40 MLOAD PUSH2 0x9C SWAP2 SWAP1 PUSH2 0x227 JUMP JUMPDEST PUSH1 0x40 MLOAD DUP1 SWAP2 SUB SWAP1 RETURN JUMPDEST PUSH1 0x0 DUP1 DUP3 PUSH20 0xFFFFFFFFFFFFFFFFFFFFFFFFFFFFFFFFFFFFFFFF AND PUSH4 0xFEAF968C PUSH1 0x40 MLOAD DUP2 PUSH4 0xFFFFFFFF AND PUSH1 0xE0 SHL DUP2 MSTORE PUSH1 0x4 ADD PUSH1 0xA0 PUSH1 0x40 MLOAD DUP1 DUP4 SUB DUP2 DUP7 GAS STATICCALL ISZERO DUP1 ISZERO PUSH2 0xF3 JUMPI RETURNDATASIZE PUSH1 0x0 DUP1 RETURNDATACOPY RETURNDATASIZE PUSH1 0x0 REVERT JUMPDEST POP POP POP POP PUSH1 0x40 MLOAD RETURNDATASIZE PUSH1 0x1F NOT PUSH1 0x1F DUP3 ADD AND DUP3 ADD DUP1 PUSH1 0x40 MSTORE POP DUP2 ADD SWAP1 PUSH2 0x117 SWAP2 SWAP1 PUSH2 0x33B JUMP JUMPDEST POP POP POP SWAP2 POP POP PUSH5 0x2540BE400 DUP2 PUSH2 0x12E SWAP2 SWAP1 PUSH2 0x3E5 JUMP JUMPDEST SWAP2 POP POP SWAP2 SWAP1 POP JUMP JUMPDEST PUSH1 0x0 DUP1 PUSH2 0x142 DUP4 PUSH2 0xA5 JUMP JUMPDEST SWAP1 POP PUSH8 0xDE0B6B3A7640000 DUP2 DUP6 PUSH2 0x159 SWAP2 SWAP1 PUSH2 0x45D JUMP JUMPDEST PUSH2 0x163 SWAP2 SWAP1 PUSH2 0x4CE JUMP JUMPDEST SWAP2 POP POP SWAP3 SWAP2 POP POP JUMP JUMPDEST PUSH1 0x0 DUP1 REVERT JUMPDEST PUSH1 0x0 PUSH20 0xFFFFFFFFFFFFFFFFFFFFFFFFFFFFFFFFFFFFFFFF DUP3 AND SWAP1 POP SWAP2 SWAP1 POP JUMP JUMPDEST PUSH1 0x0 PUSH2 0x19C DUP3 PUSH2 0x171 JUMP JUMPDEST SWAP1 POP SWAP2 SWAP1 POP JUMP JUMPDEST PUSH1 0x0 PUSH2 0x1AE DUP3 PUSH2 0x191 JUMP JUMPDEST SWAP1 POP SWAP2 SWAP1 POP JUMP JUMPDEST PUSH2 0x1BE DUP2 PUSH2 0x1A3 JUMP JUMPDEST DUP2 EQ PUSH2 0x1C9 JUMPI PUSH1 0x0 DUP1 REVERT JUMPDEST POP JUMP JUMPDEST PUSH1 0x0 DUP2 CALLDATALOAD SWAP1 POP PUSH2 0x1DB DUP2 PUSH2 0x1B5 JUMP JUMPDEST SWAP3 SWAP2 POP POP JUMP JUMPDEST PUSH1 0x0 PUSH1 0x20 DUP3 DUP5 SUB SLT ISZERO PUSH2 0x1F7 JUMPI PUSH2 0x1F6 PUSH2 0x16C JUMP JUMPDEST JUMPDEST PUSH1 0x0 PUSH2 0x205 DUP5 DUP3 DUP6 ADD PUSH2 0x1CC JUMP JUMPDEST SWAP2 POP POP SWAP3 SWAP2 POP POP JUMP JUMPDEST PUSH1 0x0 DUP2 SWAP1 POP SWAP2 SWAP1 POP JUMP JUMPDEST PUSH2 0x221 DUP2 PUSH2 0x20E JUMP JUMPDEST DUP3 MSTORE POP POP JUMP JUMPDEST PUSH1 0x0 PUSH1 0x20 DUP3 ADD SWAP1 POP PUSH2 0x23C PUSH1 0x0 DUP4 ADD DUP5 PUSH2 0x218 JUMP JUMPDEST SWAP3 SWAP2 POP POP JUMP JUMPDEST PUSH2 0x24B DUP2 PUSH2 0x20E JUMP JUMPDEST DUP2 EQ PUSH2 0x256 JUMPI PUSH1 0x0 DUP1 REVERT JUMPDEST POP JUMP JUMPDEST PUSH1 0x0 DUP2 CALLDATALOAD SWAP1 POP PUSH2 0x268 DUP2 PUSH2 0x242 JUMP JUMPDEST SWAP3 SWAP2 POP POP JUMP JUMPDEST PUSH1 0x0 DUP1 PUSH1 0x40 DUP4 DUP6 SUB SLT ISZERO PUSH2 0x285 JUMPI PUSH2 0x284 PUSH2 0x16C JUMP JUMPDEST JUMPDEST PUSH1 0x0 PUSH2 0x293 DUP6 DUP3 DUP7 ADD PUSH2 0x259 JUMP JUMPDEST SWAP3 POP POP PUSH1 0x20 PUSH2 0x2A4 DUP6 DUP3 DUP7 ADD PUSH2 0x1CC JUMP JUMPDEST SWAP2 POP POP SWAP3 POP SWAP3 SWAP1 POP JUMP JUMPDEST PUSH1 0x0 PUSH10 0xFFFFFFFFFFFFFFFFFFFF DUP3 AND SWAP1 POP SWAP2 SWAP1 POP JUMP JUMPDEST PUSH2 0x2CD DUP2 PUSH2 0x2AE JUMP JUMPDEST DUP2 EQ PUSH2 0x2D8 JUMPI PUSH1 0x0 DUP1 REVERT JUMPDEST POP JUMP JUMPDEST PUSH1 0x0 DUP2 MLOAD SWAP1 POP PUSH2 0x2EA DUP2 PUSH2 0x2C4 JUMP JUMPDEST SWAP3 SWAP2 POP POP JUMP JUMPDEST PUSH1 0x0 DUP2 SWAP1 POP SWAP2 SWAP1 POP JUMP JUMPDEST PUSH2 0x303 DUP2 PUSH2 0x2F0 JUMP JUMPDEST DUP2 EQ PUSH2 0x30E JUMPI PUSH1 0x0 DUP1 REVERT JUMPDEST POP JUMP JUMPDEST PUSH1 0x0 DUP2 MLOAD SWAP1 POP PUSH2 0x320 DUP2 PUSH2 0x2FA JUMP JUMPDEST SWAP3 SWAP2 POP POP JUMP JUMPDEST PUSH1 0x0 DUP2 MLOAD SWAP1 POP PUSH2 0x335 DUP2 PUSH2 0x242 JUMP JUMPDEST SWAP3 SWAP2 POP POP JUMP JUMPDEST PUSH1 0x0 DUP1 PUSH1 0x0 DUP1 PUSH1 0x0 PUSH1 0xA0 DUP7 DUP9 SUB SLT ISZERO PUSH2 0x357 JUMPI PUSH2 0x356 PUSH2 0x16C JUMP JUMPDEST JUMPDEST PUSH1 0x0 PUSH2 0x365 DUP9 DUP3 DUP10 ADD PUSH2 0x2DB JUMP JUMPDEST SWAP6 POP POP PUSH1 0x20 PUSH2 0x376 DUP9 DUP3 DUP10 ADD PUSH2 0x311 JUMP JUMPDEST SWAP5 POP POP PUSH1 0x40 PUSH2 0x387 DUP9 DUP3 DUP10 ADD PUSH2 0x326 JUMP JUMPDEST SWAP4 POP POP PUSH1 0x60 PUSH2 0x398 DUP9 DUP3 DUP10 ADD PUSH2 0x326 JUMP JUMPDEST SWAP3 POP POP PUSH1 0x80 PUSH2 0x3A9 DUP9 DUP3 DUP10 ADD PUSH2 0x2DB JUMP JUMPDEST SWAP2 POP POP SWAP3 SWAP6 POP SWAP3 SWAP6 SWAP1 SWAP4 POP JUMP JUMPDEST PUSH32 0x4E487B7100000000000000000000000000000000000000000000000000000000 PUSH1 0x0 MSTORE PUSH1 0x11 PUSH1 0x4 MSTORE PUSH1 0x24 PUSH1 0x0 REVERT JUMPDEST PUSH1 0x0 PUSH2 0x3F0 DUP3 PUSH2 0x2F0 JUMP JUMPDEST SWAP2 POP PUSH2 0x3FB DUP4 PUSH2 0x2F0 JUMP JUMPDEST SWAP3 POP DUP3 DUP3 MUL PUSH2 0x409 DUP2 PUSH2 0x2F0 JUMP JUMPDEST SWAP2 POP PUSH32 0x8000000000000000000000000000000000000000000000000000000000000000 DUP5 EQ PUSH1 0x0 DUP5 SLT AND ISZERO PUSH2 0x441 JUMPI PUSH2 0x440 PUSH2 0x3B6 JUMP JUMPDEST JUMPDEST DUP3 DUP3 SDIV DUP5 EQ DUP4 ISZERO OR PUSH2 0x456 JUMPI PUSH2 0x455 PUSH2 0x3B6 JUMP JUMPDEST JUMPDEST POP SWAP3 SWAP2 POP POP JUMP JUMPDEST PUSH1 0x0 PUSH2 0x468 DUP3 PUSH2 0x20E JUMP JUMPDEST SWAP2 POP PUSH2 0x473 DUP4 PUSH2 0x20E JUMP JUMPDEST SWAP3 POP DUP3 DUP3 MUL PUSH2 0x481 DUP2 PUSH2 0x20E JUMP JUMPDEST SWAP2 POP DUP3 DUP3 DIV DUP5 EQ DUP4 ISZERO OR PUSH2 0x498 JUMPI PUSH2 0x497 PUSH2 0x3B6 JUMP JUMPDEST JUMPDEST POP SWAP3 SWAP2 POP POP JUMP JUMPDEST PUSH32 0x4E487B7100000000000000000000000000000000000000000000000000000000 PUSH1 0x0 MSTORE PUSH1 0x12 PUSH1 0x4 MSTORE PUSH1 0x24 PUSH1 0x0 REVERT JUMPDEST PUSH1 0x0 PUSH2 0x4D9 DUP3 PUSH2 0x20E JUMP JUMPDEST SWAP2 POP PUSH2 0x4E4 DUP4 PUSH2 0x20E JUMP JUMPDEST SWAP3 POP DUP3 PUSH2 0x4F4 JUMPI PUSH2 0x4F3 PUSH2 0x49F JUMP JUMPDEST JUMPDEST DUP3 DUP3 DIV SWAP1 POP SWAP3 SWAP2 POP POP JUMP INVALID LOG2 PUSH5 0x6970667358 0x22 SLT KECCAK256 SIGNEXTEND PUSH1 0xAC PUSH15 0x22D6DD5A85EC481304C9EE71949473 0x4B 0xC6 PUSH3 0xDF48B3 0xE6 CALLCODE 0xFB PUSH8 0x4C226464736F6C63 NUMBER STOP ADDMOD SGT STOP CALLER "
				},
				"gasEstimates": {
					"creation": {
						"codeDepositCost": "266600",
						"executionCost": "331",
						"totalCost": "266931"
					},
					"external": {
						"getChainlinkDataFeedLatestAnswer(AggregatorV3Interface)": "infinite",
						"getConversion(uint256,AggregatorV3Interface)": "infinite"
					}
				},
				"methodIdentifiers": {
					"getChainlinkDataFeedLatestAnswer(AggregatorV3Interface)": "62591954",
					"getConversion(uint256,AggregatorV3Interface)": "eed23184"
				}
			},
			"storageLayout": {
				"storage": [],
				"types": null
			},
			"userdoc": {
				"kind": "user",
				"methods": {},
				"version": 1
			}
		}
	}
}